{
  "address": "0x2e0Dc4Ce1b287FbaF956b7a0B9d4Aa6b1bc23EF2",
  "abi": [
    {
      "inputs": [
        {
          "internalType": "address",
          "name": "_pool",
          "type": "address"
        }
      ],
      "stateMutability": "nonpayable",
      "type": "constructor"
    },
    {
      "inputs": [],
      "name": "ADDRESSES_PROVIDER",
      "outputs": [
        {
          "internalType": "contract IPoolAddressesProvider",
          "name": "",
          "type": "address"
        }
      ],
      "stateMutability": "view",
      "type": "function"
    },
    {
      "inputs": [],
      "name": "POOL",
      "outputs": [
        {
          "internalType": "contract IPool",
          "name": "",
          "type": "address"
        }
      ],
      "stateMutability": "view",
      "type": "function"
    },
    {
      "inputs": [
        {
          "internalType": "address",
          "name": "asset",
          "type": "address"
        },
        {
          "internalType": "uint256",
          "name": "amount",
          "type": "uint256"
        }
      ],
      "name": "executeFlashLoan",
      "outputs": [],
      "stateMutability": "nonpayable",
      "type": "function"
    },
    {
      "inputs": [
        {
          "internalType": "address",
          "name": "asset",
          "type": "address"
        },
        {
          "internalType": "uint256",
          "name": "amount",
          "type": "uint256"
        },
        {
          "internalType": "uint256",
          "name": "premium",
          "type": "uint256"
        },
        {
          "internalType": "address",
          "name": "initiator",
          "type": "address"
        },
        {
          "internalType": "bytes",
          "name": "params",
          "type": "bytes"
        }
      ],
      "name": "executeOperation",
      "outputs": [
        {
          "internalType": "bool",
          "name": "",
          "type": "bool"
        }
      ],
      "stateMutability": "nonpayable",
      "type": "function"
    },
    {
      "inputs": [],
      "name": "owner",
      "outputs": [
        {
          "internalType": "address",
          "name": "",
          "type": "address"
        }
      ],
      "stateMutability": "view",
      "type": "function"
    },
    {
      "inputs": [
        {
          "internalType": "address",
          "name": "token",
          "type": "address"
        },
        {
          "internalType": "uint256",
          "name": "amount",
          "type": "uint256"
        }
      ],
      "name": "withdrawToken",
      "outputs": [],
      "stateMutability": "nonpayable",
      "type": "function"
    },
    {
      "stateMutability": "payable",
      "type": "receive"
    }
  ],
  "transactionHash": "0x735d127e8c4de6ab56974daa5ccb27a29aed49f0e6a54869f8e4879ea4e39c61",
  "args": [
    "0x012bAC54348C0E635dCAc9D5FB99f06F24136C9A"
  ],
  "numDeployments": 3,
  "solcInputHash": "e77bc0c032ba012452b3370e67028b9f",
  "bytecode": "0x60c060405234801561001057600080fd5b50604051610e9e380380610e9e833981810160405281019061003291906101b3565b808073ffffffffffffffffffffffffffffffffffffffff1660808173ffffffffffffffffffffffffffffffffffffffff16815250508073ffffffffffffffffffffffffffffffffffffffff1663026b1d5f6040518163ffffffff1660e01b8152600401602060405180830381865afa1580156100b2573d6000803e3d6000fd5b505050506040513d601f19601f820116820180604052508101906100d691906101b3565b73ffffffffffffffffffffffffffffffffffffffff1660a08173ffffffffffffffffffffffffffffffffffffffff168152505050336000806101000a81548173ffffffffffffffffffffffffffffffffffffffff021916908373ffffffffffffffffffffffffffffffffffffffff160217905550506101e0565b600080fd5b600073ffffffffffffffffffffffffffffffffffffffff82169050919050565b600061018082610155565b9050919050565b61019081610175565b811461019b57600080fd5b50565b6000815190506101ad81610187565b92915050565b6000602082840312156101c9576101c8610150565b5b60006101d78482850161019e565b91505092915050565b60805160a051610c8461021a6000396000818161019d015281816102c5015281816103fb0152610494015260006101770152610c846000f3fe6080604052600436106100595760003560e01c80630542975c146100655780631b11d0ff146100905780636065c245146100cd5780637535d246146100f65780638da5cb5b146101215780639e281a981461014c57610060565b3661006057005b600080fd5b34801561007157600080fd5b5061007a610175565b604051610087919061068a565b60405180910390f35b34801561009c57600080fd5b506100b760048036038101906100b29190610788565b610199565b6040516100c4919061083d565b60405180910390f35b3480156100d957600080fd5b506100f460048036038101906100ef9190610858565b610355565b005b34801561010257600080fd5b5061010b610492565b60405161011891906108b9565b60405180910390f35b34801561012d57600080fd5b506101366104b6565b60405161014391906108e3565b60405180910390f35b34801561015857600080fd5b50610173600480360381019061016e9190610858565b6104da565b005b7f000000000000000000000000000000000000000000000000000000000000000081565b60007f000000000000000000000000000000000000000000000000000000000000000073ffffffffffffffffffffffffffffffffffffffff163373ffffffffffffffffffffffffffffffffffffffff1614610229576040517f08c379a00000000000000000000000000000000000000000000000000000000081526004016102209061095b565b60405180910390fd5b3073ffffffffffffffffffffffffffffffffffffffff168473ffffffffffffffffffffffffffffffffffffffff1614610297576040517f08c379a000000000000000000000000000000000000000000000000000000000815260040161028e906109c7565b60405180910390fd5b600085876102a59190610a16565b90508773ffffffffffffffffffffffffffffffffffffffff1663095ea7b37f0000000000000000000000000000000000000000000000000000000000000000836040518363ffffffff1660e01b8152600401610302929190610a59565b6020604051808303816000875af1158015610321573d6000803e3d6000fd5b505050506040513d601f19601f820116820180604052508101906103459190610aae565b5060019150509695505050505050565b60008054906101000a900473ffffffffffffffffffffffffffffffffffffffff1673ffffffffffffffffffffffffffffffffffffffff163373ffffffffffffffffffffffffffffffffffffffff16146103e3576040517f08c379a00000000000000000000000000000000000000000000000000000000081526004016103da90610b27565b60405180910390fd5b600060405180602001604052806000815250905060007f000000000000000000000000000000000000000000000000000000000000000073ffffffffffffffffffffffffffffffffffffffff166342b0b77c30868686866040518663ffffffff1660e01b815260040161045a959493929190610bf4565b600060405180830381600087803b15801561047457600080fd5b505af1158015610488573d6000803e3d6000fd5b5050505050505050565b7f000000000000000000000000000000000000000000000000000000000000000081565b60008054906101000a900473ffffffffffffffffffffffffffffffffffffffff1681565b60008054906101000a900473ffffffffffffffffffffffffffffffffffffffff1673ffffffffffffffffffffffffffffffffffffffff163373ffffffffffffffffffffffffffffffffffffffff1614610568576040517f08c379a000000000000000000000000000000000000000000000000000000000815260040161055f90610b27565b60405180910390fd5b8173ffffffffffffffffffffffffffffffffffffffff1663a9059cbb60008054906101000a900473ffffffffffffffffffffffffffffffffffffffff16836040518363ffffffff1660e01b81526004016105c3929190610a59565b6020604051808303816000875af11580156105e2573d6000803e3d6000fd5b505050506040513d601f19601f820116820180604052508101906106069190610aae565b505050565b600073ffffffffffffffffffffffffffffffffffffffff82169050919050565b6000819050919050565b600061065061064b6106468461060b565b61062b565b61060b565b9050919050565b600061066282610635565b9050919050565b600061067482610657565b9050919050565b61068481610669565b82525050565b600060208201905061069f600083018461067b565b92915050565b600080fd5b600080fd5b60006106ba8261060b565b9050919050565b6106ca816106af565b81146106d557600080fd5b50565b6000813590506106e7816106c1565b92915050565b6000819050919050565b610700816106ed565b811461070b57600080fd5b50565b60008135905061071d816106f7565b92915050565b600080fd5b600080fd5b600080fd5b60008083601f84011261074857610747610723565b5b8235905067ffffffffffffffff81111561076557610764610728565b5b6020830191508360018202830111156107815761078061072d565b5b9250929050565b60008060008060008060a087890312156107a5576107a46106a5565b5b60006107b389828a016106d8565b96505060206107c489828a0161070e565b95505060406107d589828a0161070e565b94505060606107e689828a016106d8565b935050608087013567ffffffffffffffff811115610807576108066106aa565b5b61081389828a01610732565b92509250509295509295509295565b60008115159050919050565b61083781610822565b82525050565b6000602082019050610852600083018461082e565b92915050565b6000806040838503121561086f5761086e6106a5565b5b600061087d858286016106d8565b925050602061088e8582860161070e565b9150509250929050565b60006108a382610657565b9050919050565b6108b381610898565b82525050565b60006020820190506108ce60008301846108aa565b92915050565b6108dd816106af565b82525050565b60006020820190506108f860008301846108d4565b92915050565b600082825260208201905092915050565b7f43616c6c6572206d75737420626520746865204161766520506f6f6c00000000600082015250565b6000610945601c836108fe565b91506109508261090f565b602082019050919050565b6000602082019050818103600083015261097481610938565b9050919050565b7f496e69746961746f72206d757374206265207468697320636f6e747261637400600082015250565b60006109b1601f836108fe565b91506109bc8261097b565b602082019050919050565b600060208201905081810360008301526109e0816109a4565b9050919050565b7f4e487b7100000000000000000000000000000000000000000000000000000000600052601160045260246000fd5b6000610a21826106ed565b9150610a2c836106ed565b9250828201905080821115610a4457610a436109e7565b5b92915050565b610a53816106ed565b82525050565b6000604082019050610a6e60008301856108d4565b610a7b6020830184610a4a565b9392505050565b610a8b81610822565b8114610a9657600080fd5b50565b600081519050610aa881610a82565b92915050565b600060208284031215610ac457610ac36106a5565b5b6000610ad284828501610a99565b91505092915050565b7f43616c6c6572206973206e6f74206f776e657200000000000000000000000000600082015250565b6000610b116013836108fe565b9150610b1c82610adb565b602082019050919050565b60006020820190508181036000830152610b4081610b04565b9050919050565b600081519050919050565b600082825260208201905092915050565b60005b83811015610b81578082015181840152602081019050610b66565b60008484015250505050565b6000601f19601f8301169050919050565b6000610ba982610b47565b610bb38185610b52565b9350610bc3818560208601610b63565b610bcc81610b8d565b840191505092915050565b600061ffff82169050919050565b610bee81610bd7565b82525050565b600060a082019050610c0960008301886108d4565b610c1660208301876108d4565b610c236040830186610a4a565b8181036060830152610c358185610b9e565b9050610c446080830184610be5565b969550505050505056fea2646970667358221220129405c852181083f648ada096b1b10086a9ca1d7a48fbb9af00c3d1ffec407b64736f6c634300081c0033",
  "devdoc": {
    "kind": "dev",
    "methods": {
      "executeFlashLoan(address,uint256)": {
        "details": "Main function to initiate a flash loan.",
        "params": {
          "amount": "The amount of the asset to borrow.",
          "asset": "The address of the underlying asset you want to flash borrow."
        }
      },
      "executeOperation(address,uint256,uint256,address,bytes)": {
        "details": "This is the callback function Aave calls after transferring the flash borrowed amount.      Perform your operations here and then repay the loan + premium.",
        "params": {
          "amount": "The amount of asset borrowed.",
          "asset": "The address of the underlying asset being flash-borrowed.",
          "initiator": "The address that initiated the flash loan (should be this contract).",
          "params": "Arbitrary parameters passed from the flash loan initiation.",
          "premium": "The fee for the flash loan."
        }
      },
      "withdrawToken(address,uint256)": {
        "details": "Helper function to withdraw tokens from this contract back to the owner.      Only the owner can withdraw tokens."
      }
    },
    "version": 1
  },
  "userdoc": {
    "kind": "user",
    "methods": {},
    "version": 1
  },
  "storageLayout": {
    "storage": [
      {
        "astId": 1364,
        "contract": "contracts/BasicFlashLoan.sol:BasicFlashLoan",
        "label": "owner",
        "offset": 0,
        "slot": "0",
        "type": "t_address"
      }
    ],
    "types": {
      "t_address": {
        "encoding": "inplace",
        "label": "address",
        "numberOfBytes": "20"
      }
    }
  }
}